{"abi":[{"type":"constructor","inputs":[{"name":"snMessaging","type":"address","internalType":"address"}],"stateMutability":"nonpayable"},{"type":"function","name":"idToRequest","inputs":[{"name":"","type":"uint256","internalType":"uint256"}],"outputs":[{"name":"token","type":"address","internalType":"address"},{"name":"amount","type":"uint256","internalType":"uint256"},{"name":"sender","type":"address","internalType":"address"}],"stateMutability":"view"},{"type":"function","name":"is_token_suppported","inputs":[{"name":"_token","type":"address","internalType":"address"}],"outputs":[{"name":"","type":"bool","internalType":"bool"}],"stateMutability":"view"},{"type":"function","name":"push","inputs":[{"name":"token","type":"address","internalType":"address"},{"name":"amount","type":"uint256","internalType":"uint256"},{"name":"payload","type":"bytes[]","internalType":"bytes[]"}],"outputs":[],"stateMutability":"payable"},{"type":"function","name":"refund","inputs":[{"name":"_id","type":"uint256","internalType":"uint256"},{"name":"receiver","type":"address","internalType":"address"}],"outputs":[],"stateMutability":"nonpayable"},{"type":"function","name":"supportedToken","inputs":[{"name":"","type":"address","internalType":"address"}],"outputs":[{"name":"","type":"bool","internalType":"bool"}],"stateMutability":"view"},{"type":"event","name":"InitMigration","inputs":[{"name":"id","type":"uint256","indexed":false,"internalType":"uint256"},{"name":"token","type":"address","indexed":true,"internalType":"address"},{"name":"amount","type":"uint256","indexed":false,"internalType":"uint256"},{"name":"sender","type":"address","indexed":true,"internalType":"address"},{"name":"payload","type":"bytes[]","indexed":false,"internalType":"bytes[]"}],"anonymous":false},{"type":"event","name":"Refund","inputs":[{"name":"id","type":"uint256","indexed":false,"internalType":"uint256"},{"name":"token","type":"address","indexed":true,"internalType":"address"},{"name":"amount","type":"uint256","indexed":false,"internalType":"uint256"},{"name":"sender","type":"address","indexed":true,"internalType":"address"},{"name":"payload","type":"bytes[]","indexed":false,"internalType":"bytes[]"}],"anonymous":false}],"bytecode":{"object":"0x6080604052348015600e575f5ffd5b50604051610494380380610494833981016040819052602b91604e565b5f80546001600160a01b0319166001600160a01b03929092169190911790556079565b5f60208284031215605d575f5ffd5b81516001600160a01b03811681146072575f5ffd5b9392505050565b61040e806100865f395ff3fe608060405260043610610049575f3560e01c8063191ffc121461004d578063625388e3146100995780637ad226dc146100ae578063d0853998146100cc578063e2c6e4381461013b575b5f5ffd5b348015610058575f5ffd5b506100846100673660046101ef565b6001600160a01b03165f9081526005602052604090205460ff1690565b60405190151581526020015b60405180910390f35b6100ac6100a7366004610254565b610169565b005b3480156100b9575f5ffd5b506100ac6100c8366004610397565b5050565b3480156100d7575f5ffd5b506101116100e63660046103c1565b60046020525f90815260409020805460018201546002909201546001600160a01b0391821692911683565b604080516001600160a01b0394851681526020810193909352921691810191909152606001610090565b348015610146575f5ffd5b506100846101553660046101ef565b60056020525f908152604090205460ff1681565b6001600160a01b0383165f9081526005602052604090205460ff1615156001146101cf5760405162461bcd60e51b8152602060048201526013602482015272151bdad95b881b9bdd081cdd5c1c1bdc9d1959606a1b604482015260640160405180910390fd5b505050565b80356001600160a01b03811681146101ea575f5ffd5b919050565b5f602082840312156101ff575f5ffd5b610208826101d4565b9392505050565b634e487b7160e01b5f52604160045260245ffd5b604051601f8201601f1916810167ffffffffffffffff8111828210171561024c5761024c61020f565b604052919050565b5f5f5f60608486031215610266575f5ffd5b61026f846101d4565b925060208401359150604084013567ffffffffffffffff811115610291575f5ffd5b8401601f810186136102a1575f5ffd5b803567ffffffffffffffff8111156102bb576102bb61020f565b8060051b6102cb60208201610223565b918252602081840181019290810190898411156102e6575f5ffd5b6020850192505b8383101561038857823567ffffffffffffffff81111561030b575f5ffd5b8501603f81018b1361031b575f5ffd5b602081013567ffffffffffffffff8111156103385761033861020f565b61034b601f8201601f1916602001610223565b8181526040838301018d101561035f575f5ffd5b816040840160208301375f602083830101528085525050506020820191506020830192506102ed565b80955050505050509250925092565b5f5f604083850312156103a8575f5ffd5b823591506103b8602084016101d4565b90509250929050565b5f602082840312156103d1575f5ffd5b503591905056fea26469706673582212202819d034b3afbc464c8508738952ab2805ba281ac0c19e20f2fe66610ad0bd1664736f6c634300081c0033","linkReferences":{}},"methodIdentifiers":{"idToRequest(uint256)":"d0853998","is_token_suppported(address)":"191ffc12","push(address,uint256,bytes[])":"625388e3","refund(uint256,address)":"7ad226dc","supportedToken(address)":"e2c6e438"},"id":0}